:100000000C942A000C94A7100C9447000C94470001
:100010000C9447000C9447000C9447000C94470044
:100020000C9447000C9447000C941D070C94F406A4
:100030000C9447000C9447000C9447000C94470024
:100040000C9447000C9447000C9447000C94470014
:100050000C94470011241FBECFE5D8E0DEBFCDBF12
:1000600012E0A0E6B0E0E2E0F3E202C005900D92FB
:10007000AC31B107D9F712E0ACE1B2E001C01D929A
:10008000A633B107E1F70E943F100C947F110C9446
:100090000000EF92FF920F931F937B018C0120E0F1
:1000A00030E040E05FE40E94190388238CF0C8012F
:1000B000B70120E030E040E05FE40E94C1010E940F
:1000C00049039B01AC01205030404040504806C0DD
:1000D000C801B7010E9449039B01AC01B901CA01E3
:1000E0001F910F91FF90EF900895A0E0B0E0EBE733
:1000F000F0E00C944811DC012B01FA019C91923044
:1001000008F439C1EB018881823008F433C194309E
:1001100069F4843009F02FC111969C91119789815F
:10012000981709F428C1A3EFB0E025C1843009F481
:1001300021C18230A9F4923009F01DC19A01AD01AC
:1001400088E0EA010990AE01E90109929E0181501F
:10015000C1F7E201898111969C918923818308C1AD
:10016000923009F407C112962D903C901397EB0141
:100170008A819B811496AD90BD90CD90DC901797AD
:10018000EC80FD800E811F819101281B390BB90184
:1001900037FF04C066277727621B730B6032710537
:1001A0000CF061C0121613066CF537014801062EDB
:1001B00004C096948794779467940A94D2F721E0C8
:1001C00030E040E050E004C0220F331F441F551FB1
:1001D0006A95D2F721503040404050402E213F21B7
:1001E00040235123211531054105510521F021E01E
:1001F00030E040E050E079018A01E628F72808293C
:1002000019293CC0232BD1F1260E371E350146019A
:10021000062E04C096948794779467940A94D2F734
:1002200021E030E040E050E004C0220F331F441FC3
:10023000551F6A95D2F721503040404050402A2146
:100240003B214C215D21211531054105510521F04E
:1002500021E030E040E050E059016A01A628B728CB
:10026000C828D9280BC0821593052CF01C01AA249C
:10027000BB24650103C0EE24FF24870111969C91E5
:10028000D20111968C91981709F445C0992339F041
:10029000A80197012A193B094C095D0906C0A6016E
:1002A00095012E193F09400B510B57FD08C01182D3
:1002B0003382228224833583468357831DC081E0A5
:1002C00081833382228288279927DC01821B930B4A
:1002D000A40BB50B84839583A683B7830DC0220F2F
:1002E000331F441F551F24833583468357838281E0
:1002F000938101979383828324813581468157813D
:10030000DA01C9010197A109B1098F5F9F4FAF4F72
:10031000BF4328F30BC0918333822282EA0CFB1C7B
:100320000C1D1D1DE482F5820683178383E0808304
:10033000248135814681578157FF1AC0C901AA27F8
:1003400097FDA095BA2F81709070A070B0705695EF
:10035000479537952795822B932BA42BB52B848318
:100360009583A683B7838281938101969383828349
:10037000DF0101C0D201CD01CDB7DEB7E2E10C94BF
:100380006411A0E2B0E0E7ECF1E00C945411698351
:100390007A838B839C832D833E834F835887E9E048
:1003A000EE2EF12CEC0EFD1ECE010196B7010E943F
:1003B0003A058E010F5E1F4FCE010596B8010E94CF
:1003C0003A058A8991E089278A8BC701B801AE0175
:1003D000475E5F4F0E9475000E946504A096E6E0AC
:1003E0000C947011A0E2B0E0E8EFF1E00C9454112D
:1003F00069837A838B839C832D833E834F835887C5
:10040000F9E0EF2EF12CEC0EFD1ECE010196B701A6
:100410000E943A058E010F5E1F4FCE010596B8016E
:100420000E943A05C701B801AE01475E5F4F0E94C6
:1004300075000E946504A096E6E00C947011A0E29D
:10044000B0E0E5E2F2E00C94481169837A838B8393
:100450009C832D833E834F835887CE010196BE0136
:10046000675F7F4F0E943A05CE010596BE016F5E21
:100470007F4F0E943A059985923088F089898230B1
:10048000C8F0943019F4823051F404C0843029F457
:10049000923081F483EF90E0C6C0923049F420E0BE
:1004A0009A858A89981321E02A87CE010996BBC0D4
:1004B000823049F420E09A858A89981321E02A8BBA
:1004C000CE014196B0C02D843E844F8458886D88FB
:1004D0007E888F88988CEE24FF248701AA24BB2471
:1004E000650140E050E060E070E0E0E0F0E0C10174
:1004F00081709070892BE9F0E60CF71C081D191D1E
:100500009A01AB012A0D3B1D4C1D5D1D80E090E062
:10051000A0E0B0E0E614F7040805190520F481E036
:1005200090E0A0E0B0E0BA01A901480F591F6A1F8E
:100530007B1FAA0CBB1CCC1CDD1C97FE08C081E0F5
:1005400090E0A0E0B0E0A82AB92ACA2ADB2A3196B6
:10055000E032F10549F0660C771C881C991C569412
:10056000479437942794C3CFFA85EA892B893C892D
:100570008B859C85280F391F2E5F3F4F17C0CA01FE
:1005800081709070892B61F016950795F794E79428
:1005900080E090E0A0E0B0E8E82AF92A0A2B1B2BC3
:1005A00076956795579547952F5F3F4F77FDE7CF36
:1005B0000CC0440F551F661F771F17FD4160EE0CDE
:1005C000FF1C001F111F21503040403090E05907A0
:1005D00090E0690790E4790760F32B8F3C8FDB0193
:1005E000CA018F779070A070B07080349105A1051A
:1005F000B10561F447FD0AC0E114F10401051105DC
:1006000029F0405C5F4F6F4F7F4F40781A8EFE1786
:1006100011F081E08A8F4D8F5E8F6F8F78A383E01A
:10062000898FCE0149960E946504A096E2E10C9460
:100630006411A8E1B0E0EFE1F3E00C945411698398
:100640007A838B839C832D833E834F83588789E0F5
:10065000E82EF12CEC0EFD1ECE010196B7010E9492
:100660003A058E010F5E1F4FCE010596B8010E941C
:100670003A058985823040F08989823028F0C701A7
:10068000B8010E94B20501C08FEF6896E6E00C94B5
:100690007011ACE0B0E0EFE4F3E00C945811698322
:1006A0007A838B839C83CE010196BE016B5F7F4F63
:1006B0000E943A058D81823061F1823050F18430A0
:1006C00021F48E81882351F12EC02F81388537FD8A
:1006D00020C06E812F3131051CF06623F9F023C054
:1006E0008EE190E0821B930B29853A854B855C85D2
:1006F00004C056954795379527958A95D2F7662376
:10070000B1F050954095309521953F4F4F4F5F4F39
:100710000EC020E030E040E050E009C02FEF3FEF96
:100720004FEF5FE704C020E030E040E050E8B9015F
:10073000CA012C96E2E00C947411A8E0B0E0E3EA60
:10074000F3E00C9450117B018C016115710581055A
:10075000910519F482E0898360C083E089838EE18A
:10076000C82ED12CDC82CB82ED82FE820F831887CB
:10077000C801B7010E941604FC013197F7FF3BC086
:10078000222733272E1B3F0B57016801022E04C07E
:10079000D694C794B794A7940A94D2F740E050E057
:1007A00060E070E081E090E0A0E0B0E004C0880F7D
:1007B000991FAA1FBB1F2A95D2F70197A109B1095A
:1007C0008E219F21A023B1230097A105B10521F01F
:1007D00041E050E060E070E04A295B296C297D2906
:1007E0004D835E836F8378878EE190E08E1B9F0B35
:1007F0009C838B8312C0309781F00E2E04C0EE0CC8
:10080000FF1C001F111F0A94D2F7ED82FE820F8396
:100810001887CE1ADF0ADC82CB821A82CE010196BB
:100820000E9465042896EAE00C946C11EF92FF9206
:100830000F931F937B018C0180E0E81680E0F8069F
:1008400081E0080780E0180788F48FEFE816F104CC
:100850000105110531F028F088E090E0A0E0B0E05B
:1008600017C080E090E0A0E0B0E012C080E0E816A1
:1008700080E0F80680E0080781E0180728F088E1AA
:1008800090E0A0E0B0E004C080E190E0A0E0B0E043
:1008900020E230E040E050E0281B390B4A0B5B0BB4
:1008A00004C016950795F794E7948A95D2F7F70157
:1008B000E550FF4F8081281B310941095109C901C9
:1008C0001F910F91FF90EF900895DF92EF92FF92AA
:1008D0000F931F93FC01E480F58006811781D1807E
:1008E0008081823048F480E090E0A0E1B0E0E82A26
:1008F000F92A0A2B1B2BA5C0843009F49FC0823033
:1009000021F4EE24FF24870105C0E114F104010560
:10091000110519F4E0E0F0E096C0628173819FEF69
:10092000623879070CF05BC022E83FEF261B370BDB
:100930002A3131052CF020E030E040E050E02AC0C0
:10094000B801A701022E04C0769567955795479583
:100950000A94D2F781E090E0A0E0B0E004C0880FF4
:10096000991FAA1FBB1F2A95D2F70197A109B109A8
:100970008E219F21A023B1230097A105B10521F06D
:1009800081E090E0A0E0B0E09A01AB01282B392B88
:100990004A2B5B2BDA01C9018F779070A070B07081
:1009A00080349105A105B10539F427FF09C0205C09
:1009B0003F4F4F4F5F4F04C0215C3F4F4F4F5F4F42
:1009C000E0E0F0E02030A0E03A07A0E04A07A0E431
:1009D0005A0710F0E1E0F0E079018A0127C06038A1
:1009E000710564F5FB01E158FF4FD801C7018F770E
:1009F0009070A070B07080349105A105B10539F4F4
:100A0000E7FE0DC080E490E0A0E0B0E004C08FE31A
:100A100090E0A0E0B0E0E80EF91E0A1F1B1F17FFD0
:100A200005C016950795F794E794319687E01695DB
:100A30000795F794E7948A95D1F705C0EE24FF2433
:100A40008701EFEFF0E06E2F679566276795902F8F
:100A50009F77D794DD24D7948E2F8695492F462BE8
:100A6000582F5D29B701CA011F910F91FF90EF9098
:100A7000DF900895FC01DB01408151812281622FCA
:100A80006F7770E0221F2227221F9381892F880F02
:100A9000822B282F30E0991F9927991F11969C933C
:100AA000119721153105A9F541155105610571050C
:100AB00011F482E037C082E89FEF13969C938E93E7
:100AC00012979A01AB0167E0220F331F441F551F95
:100AD0006A95D1F783E08C930DC0220F331F441F1A
:100AE000551F12968D919C911397019713969C9385
:100AF0008E931297203080E0380780E0480780E42A
:100B0000580758F314962D933D934D935C93179784
:100B100008952F3F310579F441155105610571059F
:100B200019F484E08C93089564FF03C081E08C93F2
:100B300012C01C9210C02F57304013963C932E9336
:100B4000129783E08C9387E0440F551F661F771F31
:100B50008A95D1F7706414964D935D936D937C9351
:100B6000179708951F93DC01FB019C91923008F4C4
:100B700047C08081823008F443C0943051F411960C
:100B80001C91843099F58181682F70E0611B710997
:100B90003FC0843021F0923031F48230B9F181814C
:100BA000882389F12DC011961C9111978230F1F0A4
:100BB00081811817D9F412962D913C911397828157
:100BC00093818217930794F028173907BCF0149685
:100BD0008D919D910D90BC91A02D248135814681F0
:100BE0005781281739074A075B0718F4112341F08A
:100BF0000AC082179307A407B50740F4112319F020
:100C000061E070E005C06FEF7FEF02C060E070E070
:100C1000CB011F9108959C016330C0F40097B1F09F
:100C2000862F90E0FC01EE0FFF1FEE0FFF1FE80F75
:100C3000F91FE95DFD4F82819381892B39F433835C
:100C400022835183408381E08483089580E0089566
:100C5000CF93DF9380911C0290911D02A0911E0200
:100C6000B0911F020196A11DB11D80931C029093AB
:100C70001D02A0931E02B0931F02C7E2D2E08C8136
:100C80008130C1F42881398140E050E060911C023C
:100C900070911D0280911E0290911F020E942611E8
:100CA000611571058105910529F4EA81FB81309771
:100CB00009F00995259682E0C633D80701F7DF9140
:100CC000CF91089590E0FC01EE0FFF1FEE0FFF1F84
:100CD000E80FF91FE95DFD4F1482089590E0FC01D3
:100CE000EE0FFF1FEE0FFF1FE80FF91FE95DFD4F2D
:100CF00081E08483089508950E94A90689EF0E94E7
:100D0000CC0688E296E00E94EF060E94C3070E948C
:100D1000DB06089587E689B980B5897F80BD80B5F7
:100D2000866080BD80B58F7780BD80B5877F80BDB0
:100D300080B58F7C80BD80B580BD579A549A539AF8
:100D400008955D9BFECF8CB908955F9BFECF8CB15B
:100D500008958FB58C7F8FBD8FB582608FBD8EB5A6
:100D6000877E8EBD8EB588618EBD8FB58F738FBD2A
:100D70008FB580688FBD89B7806189BF89B788606A
:100D800089BF8FB58F738FBD8FB580688FBD089574
:100D900090E09DBD8CBD089590E09BBD8ABD0895F7
:100DA00089B7837C89BF089589B7806189BF89B776
:100DB000886089BF08958EB5887F8EBD8EB58460AA
:100DC0008EBD08958EB5887F8EBD089590E097BD45
:100DD00086BD0895909321028093200208959093F8
:100DE00023028093220208951F920F920FB60F9252
:100DF00011242F933F934F935F936F937F938F9320
:100E00009F93AF93BF93EF93FF93E0912002F091F4
:100E10002102309709F00995FF91EF91BF91AF91B1
:100E20009F918F917F916F915F914F913F912F9102
:100E30000F900FBE0F901F9018951F920F920FB634
:100E40000F9211242F933F934F935F936F937F9350
:100E50008F939F93AF93BF93EF93FF93E091220201
:100E6000F0912302309709F00995FF91EF91BF911E
:100E7000AF919F918F917F916F915F914F913F9132
:100E80002F910F900FBE0F901F9018956D9A6C9A2E
:100E90006B986A98689A699870986E9A0895FB01A1
:100EA0008FB902C08FB18083779BFCCF08950898DB
:100EB00009988CE080B986B7806486BF86B7846065
:100EC00086BF089586B7806286BF86B7806886BF72
:100ED00006B607FEFDCF0899FECF089586B780625B
:100EE00086BF86B7806886BF06B607FEFDCF089925
:100EF000FECF089587FD0DC0880F83B986B78F7D1B
:100F000086BF86B7806886BF06B607FEFDCF089904
:100F1000FECF08958F3770F4880F816083B986B74C
:100F20008F7D86BF86B7806886BF06B607FEFDCF79
:100F30000899FECF089583B986B7806886BF06B644
:100F400007FEFDCF0899FECF0895882319F486B7D0
:100F5000806404C0813019F486B78F7B86BF86B762
:100F6000806886BF06B607FEFDCF0899FECF86B71C
:100F7000806486BF83B1089586B7806186BF86B7D7
:100F8000806886BF08958FB780688FBF08958FB738
:100F90008F778FBF0895813041F0813018F0823013
:100FA00059F407C08BB7806402C08BB780688BBFD1
:100FB00008958BB780628BBF0895813041F08130F6
:100FC00018F0823059F407C08BB78F7B02C08BB703
:100FD0008F778BBF08958BB78F7D8BBF089581303E
:100FE00021F1813020F0823009F047C03AC06130F1
:100FF00069F0613028F0623079F06330F1F50FC0AC
:1010000085B78D7F85BF85B78E7F29C085B7816005
:1010100085BF85B78D7F23C085B78E7F02C085B71A
:10102000816085BF85B782601AC0613051F0613040
:1010300028F0623061F0633001F50CC085B78B7F1A
:1010400002C085B7846085BF85B7877F08C085B734
:101050008B7F02C085B7846085BF85B7886085BFF8
:101060000895623019F0633041F404C084B78F7B77
:1010700084BF089584B7806484BF08954423C9F170
:10108000413009F06EC0813099F0813030F082300B
:10109000D1F0833009F065C021C02AB381E090E02F
:1010A00002C0880F991F6A95E2F7282B2ABB089582
:1010B00027B381E090E002C0880F991F6A95E2F79C
:1010C000282B27BB089524B381E090E002C0880F4D
:1010D000991F6A95E2F7282B24BB089521B381E07C
:1010E00090E002C0880F991F6A95E2F7282B21BB78
:1010F0000895813099F0813028F08230D9F0833022
:1011000081F524C02AB381E090E002C0880F991FC6
:101110006A95E2F7809582238ABB089527B381E020
:1011200090E002C0880F991F6A95E2F780958223AC
:1011300087BB089524B381E090E002C0880F991F17
:101140006A95E2F78095822384BB089521B381E0FC
:1011500090E002C0880F991F6A95E2F7809582237C
:1011600081BB08954423C9F1413009F06EC081303C
:1011700099F0813030F08230D1F0833009F065C0D1
:1011800021C02BB381E090E002C0880F991F6A95BF
:10119000E2F7282B2BBB089528B381E090E002C032
:1011A000880F991F6A95E2F7282B28BB089525B36D
:1011B00081E090E002C0880F991F6A95E2F7282B22
:1011C00025BB089522B381E090E002C0880F991FEB
:1011D0006A95E2F7282B22BB0895813099F081307F
:1011E00028F08230D9F0833081F524C02BB381E020
:1011F00090E002C0880F991F6A95E2F780958223DC
:101200008BBB089528B381E090E002C0880F991F3E
:101210006A95E2F78095822388BB089525B381E023
:1012200090E002C0880F991F6A95E2F780958223AB
:1012300085BB089522B381E090E002C0880F991F1A
:101240006A95E2F78095822382BB0895813051F040
:10125000813030F0823041F0833079F080E00895C1
:1012600089B303C086B301C083B390E002C09595F3
:1012700087956A95E2F78170089580B390E002C087
:10128000959587956A95E2F781700895813031F1DF
:10129000813038F0823009F43EC0833009F074C0E8
:1012A00057C02AB381E090E002C0880F991F6A9569
:1012B000E2F7982F282B2ABB40E060E971E08BB35E
:1012C00089278BBB28EB3BE0FB013197F1F72150DD
:1012D0003040D1F74F5F493091F7089527B381E04F
:1012E00090E002C0880F991F6A95E2F7982F282B8B
:1012F00027BB40E060E971E088B3892788BB28EB11
:101300003BE0FB013197F1F721503040D1F74F5FBF
:10131000493091F7089524B381E090E002C0880F2E
:10132000991F6A95E2F7982F282B24BB40E060E9CB
:1013300071E085B3892785BB28EB3BE0FB01319742
:10134000F1F721503040D1F74F5F493091F70895C0
:1013500021B381E090E002C0880F991F6A95E2F7FF
:10136000982F282B21BB40E060E971E082B38927E8
:1013700082BB28EB3BE0FB013197F1F72150304075
:10138000D1F74F5F493091F70895813049F08130AE
:1013900028F0823039F0833041F406C06ABB0895EA
:1013A00067BB089564BB089561BB0895813049F01F
:1013B000813028F0823039F0833041F406C06BBBB5
:1013C000089568BB089565BB089562BB0895813098
:1013D00069F0813028F0823079F08330C1F412C096
:1013E0008FEF8ABB8BB380958BBB08958FEF87BB44
:1013F00088B3809588BB08958FEF84BB85B38095B3
:1014000085BB08958FEF81BB82B3809582BB089521
:10141000349A08953798089587B18F7387B93E9AA3
:1014200086B1887F86B986B1876086B9379A089574
:1014300097B1907E97B997B1982B97B9369A349B0C
:10144000FECF349A24B135B1C90108959FB5906893
:101450009FBD9FB59F7B9FBD9FB59E7F9FBD9FB545
:1014600092609FBD9EB598609EBD9EB590619EBDE9
:101470009EB59E7F9EBD9EB59D7F9EBD9EB5946090
:101480009EBD22EE34E037BD26BD992787FD90959D
:101490009BBD8ABD089581E067E040E00E94B208EC
:1014A0008AE08A95F1F781E067E041E00E94B208A6
:1014B00085E38A95F1F781E067E040E00E94B20899
:1014C00081E066E00E9426098823D1F380E00E9433
:1014D000C80681E066E00E9426098823D1F762B73A
:1014E00070E080E090E061507F4F8F4F9F4F0E94EF
:1014F0009D0320E030E040E85DE30E941F020E946F
:10150000490028EE33E040E050E00E94E0102AE37A
:1015100030E040E050E00E942611CA01B901089570
:1015200081E067E041E00E943E0881E066E040E043
:101530000E943E0881E067E040E00E94B208089502
:1015400083E062E040E00E943E0883E062E00E94A7
:10155000260908950E94180AA0E0B0E0BC01CD0160
:1015600028E833E140E050E00E94E0102FEF33E044
:1015700040E050E00E942611C90108950E94AA0A85
:101580006AE070E00E94FF10CB010895EF92FF9295
:101590001F93182F81E061E041E00E94B20881E0D2
:1015A00062E040E00E94B208412F441F4427441FDC
:1015B00080E067E00E94B208412F4295469546952B
:1015C000417080E066E00E94B208412F4295469546
:1015D000417080E065E00E94B208412F4295417061
:1015E00080E064E00E94B20881E063E041E00E9494
:1015F000B20880EDE82E87E0F82EC7010197F1F7D9
:1016000081E063E040E00E94B208412F4695469594
:101610004695417080E067E00E94B208412F4695F0
:101620004695417080E066E00E94B208412F4695E1
:10163000417080E065E00E94B208117080E064E0D3
:10164000412F0E94B20881E063E041E00E94B208AD
:10165000C7010197F1F781E063E040E00E94B20822
:101660001F91FF90EF9008951F93CF93DF93EC01AC
:1016700010E003C00E94C60A1F5FFE01E10FF11DCA
:1016800080818823B9F7DF91CF911F9108956F92E0
:101690007F929F92AF92BF92CF92DF92EF92FF9292
:1016A0000F931F93DF93CF93CDB7DEB78C016DB649
:1016B0007EB6009721F480E30E94C60AA9C01816DE
:1016C00019060CF055C0ADB69EB6B801882777FD57
:1016D0008095982FBB242AE030E040E050E00E9443
:1016E0002611C901DA01BC01CD01B3946115710560
:1016F0008105910581F7EB2CFF24C70101962DB7D9
:101700003EB7281B390B0FB6F8943EBF0FBE2DBF56
:10171000CDB6DEB60894C11CD11C4B2D4150E42F30
:10172000FF27E7FDF095EC0DFD1D0FC0C8016AE035
:1017300070E00E941311805D8083C8016AE070E050
:101740000E9413118B014150319747FFEFCFEC0CF2
:10175000FD1CF7011082C6010E94340B8A2D992DC1
:101760009C010FB6F8943EBF0FBE2DBF17FF50C0AF
:10177000BDB6AEB68DE20E94C60ACC24DD24C01AE6
:10178000D10AC60140E06AE070E00E941311CB016B
:101790004F5F61157105B9F7042F112707FD1095EB
:1017A000C80101962DB73EB7281B390B0FB6F89428
:1017B0003EBF0FBE2DBFEDB6FEB60894E11CF11C76
:1017C0004150E42FFF27E7FDF095EE0DFF1D0FC000
:1017D000C6016AE070E00E941311805D8083C6013B
:1017E0006AE070E00E9413116B014150319747FF8E
:1017F000EFCF0E0D1F1DF8011082C7010E94340BA0
:101800008B2D9A2D9C010FB6F8943EBF0FBE2DBFB5
:101810000FB6F8947EBE0FBE6DBECF91DF911F91C3
:101820000F91FF90EF90DF90CF90BF90AF909F907F
:101830007F906F900895EF92FF921F93182F81E091
:1018400061E040E00E94B20881E062E040E00E9476
:10185000B208412F441F4427441F80E067E00E94E4
:10186000B208412F429546954695417080E066E06A
:101870000E94B208412F42954695417080E065E094
:101880000E94B208412F4295417080E064E00E94BE
:10189000B20881E063E041E00E94B20890EDE92ED9
:1018A00097E0F92EC7010197F1F781E063E040E08E
:1018B0000E94B208412F469546954695417080E0BA
:1018C00067E00E94B208412F46954695417080E03E
:1018D00066E00E94B208412F4695417080E065E0C5
:1018E0000E94B208117080E064E0412F0E94B208AB
:1018F00081E063E041E00E94B208C7010197F1F77F
:1019000081E063E040E00E94B2081F91FF90EF90F9
:101910000895982F8150823088F4693278F46623D4
:1019200069F0913029F4862F80580E941B0C08958D
:10193000923021F4862F80540E941B0C089581E080
:101940000E941B0C80EA9FE00197F1F708951F9316
:1019500080E067E041E00E943E0880E066E041E010
:101960000E943E0880E065E041E00E943E0880E081
:1019700064E041E00E943E0881E061E041E00E94B5
:101980003E0881E062E041E00E943E0881E063E0C1
:1019900041E00E943E088EE591E020E931E0F90146
:1019A0003197F1F70197D9F782E00E941B0C88E28A
:1019B0000E941B0C10EF812F8A95F1F78FE00E9497
:1019C0001B0C1A95F1F781E00E941B0C80EE9EE241
:1019D0000197F1F786E00E941B0C1F9108956F920A
:1019E0007F929F92AF92BF92CF92DF92EF92FF923F
:1019F0000F931F93CF93DF934BE0A42E42E0B42EBE
:101A00003FE0C32E32E0D32E10E024E5922EEE24E8
:101A1000FF2490E9692E91E0792EF5018081F6018D
:101A2000608140E00E94B208809113026091170229
:101A30000E942609882319F460E070E020C080919C
:101A40001402609118020E942609882319F461E0AB
:101A500070E015C080911502609119020E9426095C
:101A6000882319F462E070E00AC080911602609148
:101A70001A020E942609882309F563E070E0F70145
:101A8000EE0FFF1FEE0FFF1FE60FF71FE550FE4F93
:101A900090808B010D5E1D4FEB01C95EDD4FF8019B
:101AA000808168810E9426098823C9F384EF91E030
:101AB000F3013197F1F70197D9F711E0F501808132
:101AC000F601608141E00E94B208113071F0089483
:101AD000E11CF11C0894A11CB11C0894C11CD11C70
:101AE000F4E0EF16F10409F098CF892DDF91CF9142
:101AF0001F910F91FF90EF90DF90CF90BF90AF902C
:101B00009F907F906F90089581E064E040E00E9494
:101B10003E0881E065E040E00E943E0881E066E02A
:101B200040E00E943E0881E067E040E00E943E08FD
:101B300082E062E041E00E943E0882E063E041E032
:101B40000E943E0882E064E041E00E943E0882E09C
:101B500065E041E00E943E0881E064E041E00E94CF
:101B6000B20881E065E041E00E94B20881E066E0F1
:101B700041E00E94B20881E067E041E00E94B208C3
:101B800082E062E041E00E94B20882E063E041E06E
:101B90000E94B20882E064E041E00E94B20882E064
:101BA00065E041E00E94B2080895EF92FF920F9322
:101BB0001F93182F092F7B010E9462070065802F59
:101BC0000E947A07812F0E949B070E946E07802F38
:101BD0000E948A0781E00E94A507F70180830E9486
:101BE000BC0780E29EE40197F1F71F910F91FF90EF
:101BF000EF900895FF920F931F93182F092FF62E41
:101C00000E946207802F80650E947A07812F0E94C0
:101C10009B078F2D0E949B070E94BC0780E29EE4D9
:101C20000197F1F71F910F91FF9008950E945707B8
:101C3000089583E060E041E00E943E0883E060E0B8
:101C400040E00E94B208089583E060E041E00E9415
:101C50003E0883E060E041E00E94B2080895EF9200
:101C6000FF920F931F93CF93DF9300E040E9E42EA0
:101C700041E0F42E0E949F0C80E690E00E94340B1D
:101C800082E061E00E94890CC0E0D0E00E94EF0C8D
:101C9000182F8435D9F38AE20E94C60A812F805317
:101CA0008A3068F4CE0133E0880F991F3A95E1F746
:101CB000CC0FDD1FC80FD91FE097C10FD11D1D33F9
:101CC000F1F48091250290912602C817D90741F4BA
:101CD0000E949F0C80E790E00E94340B81E03EC0A0
:101CE0000F5F0E949F0C8FE790E00E94340B80E111
:101CF00097E2F7013197F1F70197D9F710C0133642
:101D000029F60E949F0C8EE890E00E94340B80E13F
:101D100097E2F7013197F1F70197D9F7ABCF03308D
:101D200009F0A8CF0E949F0C81E061E00E94890C1D
:101D30008FE990E00E94340B82E061E00E94890C00
:101D40008EEA90E00E94340B80E197E220E931E0D6
:101D5000F9013197F1F70197D9F780E0DF91CF9141
:101D60001F910F91FF90EF900895DF92EF92FF92F5
:101D70000F931F93DF93CF9300D0CDB7DEB78C01C5
:101D8000D72E19821A820E94FA0D78010894E11C5C
:101D9000F11CC7016D2D0E94FA0DC801BE016F5FD5
:101DA0007F4F0E94D50DC701BE016E5F7F4F0E941D
:101DB000D50D9A8180E0298130E0282B392B309392
:101DC000260220932502C9010F900F90CF91DF9139
:101DD0001F910F91FF90EF90DF90089583E063E0F3
:101DE00041E00E943E0883E063E041E00E94B208C7
:101DF00083E064E041E00E943E0883E064E041E06B
:101E00000E94B20881E060E041E00E943E0881E06B
:101E100060E041E00E94B20883E066E041E00E9499
:101E20003E0883E066E041E00E94B20883E067E09C
:101E300041E00E943E0883E067E041E00E94B20872
:101E400083E061E041E00E943E0883E061E041E020
:101E50000E94B2080895809124028D3120F480916F
:101E60002402853118F00E94240E089580912402E6
:101E70000E94190E089581E00E94BE0A80932402F8
:101E800088E893E120E931E0F9013197F1F7019712
:101E9000D9F78091240208952F923F92CF93DF9338
:101EA000E1018F8D8150E82FF0E0EE0FFF1FE20D72
:101EB000F31D63857485482F41504F8FE42FF0E068
:101EC000EE0FFF1FE20DF31D238534858A858150B7
:101ED0008A87F101E80FF11DE081E83741F4269F80
:101EE000C001279F900D369F900D112415C0EF3231
:101EF00029F4C9010E94FF10CB010EC0EB3221F47E
:101F0000C901860F971F08C0ED3219F080E090E0FC
:101F100003C0C901861B970BE42FF0E0EE0FFF1FF3
:101F2000EC0FFD1F948783878F8D8F5F8F8FDF91DD
:101F3000CF913F902F9008952F923F92CF92DF92B2
:101F4000FF920F931F93DF93CF93CDB7DEB7A09788
:101F50000FB6F894DEBF0FBECDBF18A21B866E0170
:101F60000894C11CD11C00E010E00E94EF0CF82E78
:101F700084E5F816D1F38F2D0E94C60A8F2D805369
:101F80008A3070F4C801E3E0880F991FEA95E1F701
:101F9000000F111F080F191F005310400F0D111DC6
:101FA0008BE2F81649F08DE2F81631F088E7F81662
:101FB00019F08FE2F816E1F588A1E82FF0E0EE0FB6
:101FC000FF1FEC0DFD1D148703878F5F88A303C0DF
:101FD00016010E944C0F2B85222311F1FE01E20F06
:101FE000F11DE081E83749F0EF3239F0EB3219F0BA
:101FF00090E0ED3219F491E001C092E088E7F81624
:1020000051F08FE2F81639F08BE2F81631F08DE2DC
:10201000F816F1F602C082E001C081E09817C0F620
:10202000F601E20FF11DF0822F5F2B8700E010E038
:102030008DE3F816D9F488A1E82FF0E0EE0FFF1F2A
:10204000EC0DFD1D148703878F5F88A303C0160165
:102050000E944C0F8B858823D1F782E061E00E94BB
:10206000890C8C859D850E94470B06C083E6F81677
:1020700009F07BCF0E949F0C18A21B8674CF82E0D0
:1020800067E041E00E943E0882E066E041E00E9495
:102090003E080E94160E0E94A70C0E94840D8AE042
:1020A00090E069E57FE20E94B50E8EEB90E00E9421
:1020B000340B82E061E00E94890C0E942F0E88237D
:1020C00009F43CC088E893E120E931E0F901319757
:1020D000F1F70197D9F70E949F0C81E063E00E941D
:1020E000890C8FEC90E00E94340B82E063E00E9448
:1020F000890C8AED90E00E94340B0E940C0A0E9429
:10210000080A80E00E94CB0780E061E00E94EF07B0
:102110000E94C3070E94EE0E80ED97E020E931E0B7
:10212000F9013197F1F70197D9F783E065E041E0D4
:102130000E943E088DE70E94260A04C085EE90E0CA
:102140000E94340B0E943B0F0E942B0FFBCF1F926B
:102150000F920FB60F9211242F933F934F935F93DB
:102160006F937F938F939F93AF93BF93EF93FF935F
:102170000E94A00A882349F082E067E041E00E94C3
:10218000B20882E066E041E008C082E067E040E03B
:102190000E94B20882E066E040E00E94B208FF912F
:1021A000EF91BF91AF919F918F917F916F915F91CF
:1021B0004F913F912F910F900FBE0F901F90189548
:1021C000629FD001739FF001829FE00DF11D649F1B
:1021D000E00DF11D929FF00D839FF00D749FF00DA7
:1021E000659FF00D9927729FB00DE11DF91F639F48
:1021F000B00DE11DF91FBD01CF0111240895AA1BE7
:10220000BB1B51E107C0AA1FBB1FA617B70710F0E1
:10221000A61BB70B881F991F5A95A9F78095909513
:10222000BC01CD01089597FB092E07260AD077FD42
:1022300004D0E5DF06D000201AF4709561957F4F39
:102240000895F6F7909581959F4F0895A1E21A2E73
:10225000AA1BBB1BFD010DC0AA1FBB1FEE1FFF1F4A
:10226000A217B307E407F50720F0A21BB30BE40B9A
:10227000F50B661F771F881F991F1A9469F76095E1
:102280007095809590959B01AC01BD01CF0108959B
:102290002F923F924F925F926F927F928F929F9276
:1022A000AF92BF92CF92DF92EF92FF920F931F9364
:1022B000CF93DF93CDB7DEB7CA1BDB0B0FB6F89415
:1022C000DEBF0FBECDBF09942A88398848885F8455
:1022D0006E847D848C849B84AA84B984C884DF80C6
:1022E000EE80FD800C811B81AA81B981CE0FD11DAA
:1022F0000FB6F894DEBF0FBECDBFED010895F89480
:02230000FFCF0D
:10230200456E7465722070617373776F72643A0000
:10231200416363657373204772616E74656400572D
:10232200726F6E672070617373776F7264005061B1
:102332007373776F726420636C65617265640053B6
:10234200797374656D206C6F636B656421005265EF
:102352007175697265205265737461727400456E9D
:102362007465722070617373776F7264203A0057DC
:10237200656C636F6D6520746F0020796F757220D4
:10238200486F6D65004163636573732044656E69D0
:10239200656400000000000000000000010202036A
:1023A20003030304040404040404040505050505E9
:1023B20005050505050505050505050606060606C6
:1023C20006060606060606060606060606060606AB
:1023D2000606060606060606060606070707070796
:1023E200070707070707070707070707070707077B
:1023F200070707070707070707070707070707076B
:10240200070707070707070707070707070707075A
:102412000707070707070707070707080808080845
:10242200080808080808080808080808080808082A
:10243200080808080808080808080808080808081A
:10244200080808080808080808080808080808080A
:1024520008080808080808080808080808080808FA
:1024620008080808080808080808080808080808EA
:1024720008080808080808080808080808080808DA
:1024820008080808080808080808080808080808CA
:1024920008080808080808080808083738392F34D7
:1024A2003536783132332D63303D2B02020202027F
:0C24B200030405010101010405060700F8
:00000001FF
