:100000000C942A000C9447000C9447000C94470071
:100010000C9447000C9447000C9447000C94470044
:100020000C9447000C9447000C9400070C94D706DE
:100030000C9447000C9447000C9447000C94470024
:100040000C9447000C9447000C9447000C94470014
:100050000C94470011241FBECFE5D8E0DEBFCDBF12
:1000600011E0A0E6B0E0E6EEFEE102C005900D92E0
:10007000A838B107D9F711E0A8E8B1E001C01D9296
:10008000AF39B107E1F70E94D10E0C94710F0C94B7
:100090000000EF92FF920F931F937B018C0120E0F1
:1000A00030E040E05FE40E94190388238CF0C8012F
:1000B000B70120E030E040E05FE40E94C1010E940F
:1000C00049039B01AC01205030404040504806C0DD
:1000D000C801B7010E9449039B01AC01B901CA01E3
:1000E0001F910F91FF90EF900895A0E0B0E0EBE733
:1000F000F0E00C943A0FDC012B01FA019C91923054
:1001000008F439C1EB018881823008F433C194309E
:1001100069F4843009F02FC111969C91119789815F
:10012000981709F428C1A0E6B0E025C1843009F48D
:1001300021C18230A9F4923009F01DC19A01AD01AC
:1001400088E0EA010990AE01E90109929E0181501F
:10015000C1F7E201898111969C918923818308C1AD
:10016000923009F407C112962D903C901397EB0141
:100170008A819B811496AD90BD90CD90DC901797AD
:10018000EC80FD800E811F819101281B390BB90184
:1001900037FF04C066277727621B730B6032710537
:1001A0000CF061C0121613066CF537014801062EDB
:1001B00004C096948794779467940A94D2F721E0C8
:1001C00030E040E050E004C0220F331F441F551FB1
:1001D0006A95D2F721503040404050402E213F21B7
:1001E00040235123211531054105510521F021E01E
:1001F00030E040E050E079018A01E628F72808293C
:1002000019293CC0232BD1F1260E371E350146019A
:10021000062E04C096948794779467940A94D2F734
:1002200021E030E040E050E004C0220F331F441FC3
:10023000551F6A95D2F721503040404050402A2146
:100240003B214C215D21211531054105510521F04E
:1002500021E030E040E050E059016A01A628B728CB
:10026000C828D9280BC0821593052CF01C01AA249C
:10027000BB24650103C0EE24FF24870111969C91E5
:10028000D20111968C91981709F445C0992339F041
:10029000A80197012A193B094C095D0906C0A6016E
:1002A00095012E193F09400B510B57FD08C01182D3
:1002B0003382228224833583468357831DC081E0A5
:1002C00081833382228288279927DC01821B930B4A
:1002D000A40BB50B84839583A683B7830DC0220F2F
:1002E000331F441F551F24833583468357838281E0
:1002F000938101979383828324813581468157813D
:10030000DA01C9010197A109B1098F5F9F4FAF4F72
:10031000BF4328F30BC0918333822282EA0CFB1C7B
:100320000C1D1D1DE482F5820683178383E0808304
:10033000248135814681578157FF1AC0C901AA27F8
:1003400097FDA095BA2F81709070A070B0705695EF
:10035000479537952795822B932BA42BB52B848318
:100360009583A683B7838281938101969383828349
:10037000DF0101C0D201CD01CDB7DEB7E2E10C94BF
:10038000560FA0E2B0E0E7ECF1E00C94460F698371
:100390007A838B839C832D833E834F835887E9E048
:1003A000EE2EF12CEC0EFD1ECE010196B7010E943F
:1003B0003A058E010F5E1F4FCE010596B8010E94CF
:1003C0003A058A8991E089278A8BC701B801AE0175
:1003D000475E5F4F0E9475000E946504A096E6E0AC
:1003E0000C94620FA0E2B0E0E8EFF1E00C94460F4D
:1003F00069837A838B839C832D833E834F835887C5
:10040000F9E0EF2EF12CEC0EFD1ECE010196B701A6
:100410000E943A058E010F5E1F4FCE010596B8016E
:100420000E943A05C701B801AE01475E5F4F0E94C6
:1004300075000E946504A096E6E00C94620FA0E2AD
:10044000B0E0E5E2F2E00C943A0F69837A838B83A3
:100450009C832D833E834F835887CE010196BE0136
:10046000675F7F4F0E943A05CE010596BE016F5E21
:100470007F4F0E943A059985923088F089898230B1
:10048000C8F0943019F4823051F404C0843029F457
:10049000923081F480E690E0C6C0923049F420E0CA
:1004A0009A858A89981321E02A87CE010996BBC0D4
:1004B000823049F420E09A858A89981321E02A8BBA
:1004C000CE014196B0C02D843E844F8458886D88FB
:1004D0007E888F88988CEE24FF248701AA24BB2471
:1004E000650140E050E060E070E0E0E0F0E0C10174
:1004F00081709070892BE9F0E60CF71C081D191D1E
:100500009A01AB012A0D3B1D4C1D5D1D80E090E062
:10051000A0E0B0E0E614F7040805190520F481E036
:1005200090E0A0E0B0E0BA01A901480F591F6A1F8E
:100530007B1FAA0CBB1CCC1CDD1C97FE08C081E0F5
:1005400090E0A0E0B0E0A82AB92ACA2ADB2A3196B6
:10055000E032F10549F0660C771C881C991C569412
:10056000479437942794C3CFFA85EA892B893C892D
:100570008B859C85280F391F2E5F3F4F17C0CA01FE
:1005800081709070892B61F016950795F794E79428
:1005900080E090E0A0E0B0E8E82AF92A0A2B1B2BC3
:1005A00076956795579547952F5F3F4F77FDE7CF36
:1005B0000CC0440F551F661F771F17FD4160EE0CDE
:1005C000FF1C001F111F21503040403090E05907A0
:1005D00090E0690790E4790760F32B8F3C8FDB0193
:1005E000CA018F779070A070B07080349105A1051A
:1005F000B10561F447FD0AC0E114F10401051105DC
:1006000029F0405C5F4F6F4F7F4F40781A8EFE1786
:1006100011F081E08A8F4D8F5E8F6F8F78A383E01A
:10062000898FCE0149960E946504A096E2E10C9460
:10063000560FA8E1B0E0EFE1F3E00C94460F6983B8
:100640007A838B839C832D833E834F83588789E0F5
:10065000E82EF12CEC0EFD1ECE010196B7010E9492
:100660003A058E010F5E1F4FCE010596B8010E941C
:100670003A058985823040F08989823028F0C701A7
:10068000B8010E94B20501C08FEF6896E6E00C94B5
:10069000620FACE0B0E0EFE4F3E00C944A0F698342
:1006A0007A838B839C83CE010196BE016B5F7F4F63
:1006B0000E943A058D81823061F1823050F18430A0
:1006C00021F48E81882351F12EC02F81388537FD8A
:1006D00020C06E812F3131051CF06623F9F023C054
:1006E0008EE190E0821B930B29853A854B855C85D2
:1006F00004C056954795379527958A95D2F7662376
:10070000B1F050954095309521953F4F4F4F5F4F39
:100710000EC020E030E040E050E009C02FEF3FEF96
:100720004FEF5FE704C020E030E040E050E8B9015F
:10073000CA012C96E2E00C94660FA8E0B0E0E3EA70
:10074000F3E00C94420F7B018C016115710581056A
:10075000910519F482E0898360C083E089838EE18A
:10076000C82ED12CDC82CB82ED82FE820F831887CB
:10077000C801B7010E941604FC013197F7FF3BC086
:10078000222733272E1B3F0B57016801022E04C07E
:10079000D694C794B794A7940A94D2F740E050E057
:1007A00060E070E081E090E0A0E0B0E004C0880F7D
:1007B000991FAA1FBB1F2A95D2F70197A109B1095A
:1007C0008E219F21A023B1230097A105B10521F01F
:1007D00041E050E060E070E04A295B296C297D2906
:1007E0004D835E836F8378878EE190E08E1B9F0B35
:1007F0009C838B8312C0309781F00E2E04C0EE0CC8
:10080000FF1C001F111F0A94D2F7ED82FE820F8396
:100810001887CE1ADF0ADC82CB821A82CE010196BB
:100820000E9465042896EAE00C945E0FEF92FF9216
:100830000F931F937B018C0180E0E81680E0F8069F
:1008400081E0080780E0180788F48FEFE816F104CC
:100850000105110531F028F088E090E0A0E0B0E05B
:1008600017C080E090E0A0E0B0E012C080E0E816A1
:1008700080E0F80680E0080781E0180728F088E1AA
:1008800090E0A0E0B0E004C080E190E0A0E0B0E043
:1008900020E230E040E050E0281B390B4A0B5B0BB4
:1008A00004C016950795F794E7948A95D2F7F70157
:1008B000E859FF4F8081281B310941095109C901BD
:1008C0001F910F91FF90EF900895DF92EF92FF92AA
:1008D0000F931F93FC01E480F58006811781D1807E
:1008E0008081823048F480E090E0A0E1B0E0E82A26
:1008F000F92A0A2B1B2BA5C0843009F49FC0823033
:1009000021F4EE24FF24870105C0E114F104010560
:10091000110519F4E0E0F0E096C0628173819FEF69
:10092000623879070CF05BC022E83FEF261B370BDB
:100930002A3131052CF020E030E040E050E02AC0C0
:10094000B801A701022E04C0769567955795479583
:100950000A94D2F781E090E0A0E0B0E004C0880FF4
:10096000991FAA1FBB1F2A95D2F70197A109B109A8
:100970008E219F21A023B1230097A105B10521F06D
:1009800081E090E0A0E0B0E09A01AB01282B392B88
:100990004A2B5B2BDA01C9018F779070A070B07081
:1009A00080349105A105B10539F427FF09C0205C09
:1009B0003F4F4F4F5F4F04C0215C3F4F4F4F5F4F42
:1009C000E0E0F0E02030A0E03A07A0E04A07A0E431
:1009D0005A0710F0E1E0F0E079018A0127C06038A1
:1009E000710564F5FB01E158FF4FD801C7018F770E
:1009F0009070A070B07080349105A105B10539F4F4
:100A0000E7FE0DC080E490E0A0E0B0E004C08FE31A
:100A100090E0A0E0B0E0E80EF91E0A1F1B1F17FFD0
:100A200005C016950795F794E794319687E01695DB
:100A30000795F794E7948A95D1F705C0EE24FF2433
:100A40008701EFEFF0E06E2F679566276795902F8F
:100A50009F77D794DD24D7948E2F8695492F462BE8
:100A6000582F5D29B701CA011F910F91FF90EF9098
:100A7000DF900895FC01DB01408151812281622FCA
:100A80006F7770E0221F2227221F9381892F880F02
:100A9000822B282F30E0991F9927991F11969C933C
:100AA000119721153105A9F541155105610571050C
:100AB00011F482E037C082E89FEF13969C938E93E7
:100AC00012979A01AB0167E0220F331F441F551F95
:100AD0006A95D1F783E08C930DC0220F331F441F1A
:100AE000551F12968D919C911397019713969C9385
:100AF0008E931297203080E0380780E0480780E42A
:100B0000580758F314962D933D934D935C93179784
:100B100008952F3F310579F441155105610571059F
:100B200019F484E08C93089564FF03C081E08C93F2
:100B300012C01C9210C02F57304013963C932E9336
:100B4000129783E08C9387E0440F551F661F771F31
:100B50008A95D1F7706414964D935D936D937C9351
:100B6000179708951F93DC01FB019C91923008F4C4
:100B700047C08081823008F443C0943051F411960C
:100B80001C91843099F58181682F70E0611B710997
:100B90003FC0843021F0923031F48230B9F181814C
:100BA000882389F12DC011961C9111978230F1F0A4
:100BB00081811817D9F412962D913C911397828157
:100BC00093818217930794F028173907BCF0149685
:100BD0008D919D910D90BC91A02D248135814681F0
:100BE0005781281739074A075B0718F4112341F08A
:100BF0000AC082179307A407B50740F4112319F020
:100C000061E070E005C06FEF7FEF02C060E070E070
:100C1000CB011F9108959C016330C0F40097B1F09F
:100C2000862F90E0FC01EE0FFF1FEE0FFF1FE80F75
:100C3000F91FE057FE4F82819381892B39F433836A
:100C400022835183408381E08483089580E0089566
:100C5000CF93DF938091880190918901A0918A01BF
:100C6000B0918B010196A11DB11D809388019093D5
:100C70008901A0938A01B0938B01C0E9D1E08C81F6
:100C80008130C1F42881398140E050E060918801D1
:100C90007091890180918A0190918B010E94180FB7
:100CA000611571058105910529F4EA81FB81309771
:100CB00009F00995259681E0CF39D80701F7DF9132
:100CC000CF91089590E0FC01EE0FFF1FEE0FFF1F84
:100CD000E80FF91FE057FE4F1482089590E0FC01E1
:100CE000EE0FFF1FEE0FFF1FE80FF91FE057FE4F3B
:100CF00081E08483089508950E94A90689EF0E94E7
:100D0000B40688E296E00E94D2060E94A6070E94DE
:100D1000BE06089587E689B980B5897F80BD80B514
:100D2000866080BD80B58F7780BD80B5877F80BDB0
:100D300080B58F7C80BD80B580BD579A549A539AF8
:100D400008955D9BFECF8CB908955F9BFECF8CB15B
:100D5000089583B7877B83BF83B783BF89B78160DB
:100D600089BF089582BF08958CBF089589B78C7F8D
:100D700089BF089589B7816089BF089583B7887F47
:100D800083BF83B7816083BF089583B7887F83BFA4
:100D9000089590E097BD86BD089590938D0180934E
:100DA0008C01089590938F0180938E0108951F9276
:100DB0000F920FB60F9211242F933F934F935F938F
:100DC0006F937F938F939F93AF93BF93EF93FF9313
:100DD000E0918C01F0918D01309709F00995FF9118
:100DE000EF91BF91AF919F918F917F916F915F91A3
:100DF0004F913F912F910F900FBE0F901F9018951C
:100E00001F920F920FB60F9211242F933F934F937F
:100E10005F936F937F938F939F93AF93BF93EF9362
:100E2000FF93E0918E01F0918F01309709F00995C1
:100E3000FF91EF91BF91AF919F918F917F916F91B2
:100E40005F914F913F912F910F900FBE0F901F9088
:100E500018956D9A6C9A6B986A98689A69987098C8
:100E60006E9A0895FB018FB902C08FB18083779B82
:100E7000FCCF0895089809988CE080B986B7806403
:100E800086BF86B7846086BF089586B7806286BFB6
:100E900086B7806886BF06B607FEFDCF0899FECFED
:100EA000089586B7806286BF86B7806886BF06B61B
:100EB00007FEFDCF0899FECF089587FD0DC0880F6E
:100EC00083B986B78F7D86BF86B7806886BF06B632
:100ED00007FEFDCF0899FECF08958F3770F4880F75
:100EE000816083B986B78F7D86BF86B7806886BFED
:100EF00006B607FEFDCF0899FECF089583B986B7E1
:100F0000806886BF06B607FEFDCF0899FECF08951C
:100F1000882319F486B7806404C0813019F486B739
:100F20008F7B86BF86B7806886BF06B607FEFDCF7B
:100F30000899FECF86B7806486BF83B1089586B7CF
:100F4000806186BF86B7806886BF08958FB7806846
:100F50008FBF08958FB78F778FBF0895813041F08D
:100F6000813018F0823059F407C08BB7806402C01A
:100F70008BB780688BBF08958BB780628BBF089555
:100F8000813041F0813018F0823059F407C08BB7BE
:100F90008F7B02C08BB78F778BBF08958BB78F7D08
:100FA0008BBF0895813021F1813020F0823009F02B
:100FB00047C03AC0613069F0613028F0623079F0A2
:100FC0006330F1F50FC085B78D7F85BF85B78E7F04
:100FD00029C085B7816085BF85B78D7F23C085B760
:100FE0008E7F02C085B7816085BF85B782601AC0D9
:100FF000613051F0613028F0623061F0633001F50A
:101000000CC085B78B7F02C085B7846085BF85B76C
:10101000877F08C085B78B7F02C085B7846085BF96
:1010200085B7886085BF0895623019F0633041F458
:1010300004C084B78F7B84BF089584B7806484BF65
:1010400008954423C9F1413009F06EC0813099F010
:10105000813030F08230D1F0833009F065C021C09A
:101060002AB381E090E002C0880F991F6A95E2F7E9
:10107000282B2ABB089527B381E090E002C0880F97
:10108000991F6A95E2F7282B27BB089524B381E0C6
:1010900090E002C0880F991F6A95E2F7282B24BBC5
:1010A000089521B381E090E002C0880F991F6A95EE
:1010B000E2F7282B21BB0895813099F0813028F088
:1010C0008230D9F0833081F524C02AB381E090E0EA
:1010D00002C0880F991F6A95E2F7809582238ABB28
:1010E000089527B381E090E002C0880F991F6A95A8
:1010F000E2F78095822387BB089524B381E090E0D6
:1011000002C0880F991F6A95E2F78095822384BBFD
:10111000089521B381E090E002C0880F991F6A957D
:10112000E2F78095822381BB08954423C9F14130C1
:1011300009F06EC0813099F0813030F08230D1F00A
:10114000833009F065C021C02BB381E090E002C07C
:10115000880F991F6A95E2F7282B2BBB089528B3B7
:1011600081E090E002C0880F991F6A95E2F7282B72
:1011700028BB089525B381E090E002C0880F991F35
:101180006A95E2F7282B25BB089522B381E090E011
:1011900002C0880F991F6A95E2F7282B22BB089599
:1011A000813099F0813028F08230D9F0833081F598
:1011B00024C02BB381E090E002C0880F991F6A958C
:1011C000E2F7809582238BBB089528B381E090E0FD
:1011D00002C0880F991F6A95E2F78095822388BB29
:1011E000089525B381E090E002C0880F991F6A95A9
:1011F000E2F78095822385BB089522B381E090E0D9
:1012000002C0880F991F6A95E2F78095822382BBFE
:101210000895813051F0813030F0823041F08330D8
:1012200079F080E0089589B303C086B301C083B329
:1012300090E002C0959587956A95E2F781700895D0
:1012400080B390E002C0959587956A95E2F781702A
:101250000895813031F1813038F0823009F43EC098
:10126000833009F074C057C02AB381E090E002C017
:10127000880F991F6A95E2F7982F282B2ABB40E028
:1012800060E971E08BB389278BBB28EB3BE0FB0166
:101290003197F1F721503040D1F74F5F493091F746
:1012A000089527B381E090E002C0880F991F6A95E6
:1012B000E2F7982F282B27BB40E060E971E088B364
:1012C000892788BB28EB3BE0FB013197F1F72150E0
:1012D0003040D1F74F5F493091F7089524B381E052
:1012E00090E002C0880F991F6A95E2F7982F282B8B
:1012F00024BB40E060E971E085B3892785BB28EB1A
:101300003BE0FB013197F1F721503040D1F74F5FBF
:10131000493091F7089521B381E090E002C0880F31
:10132000991F6A95E2F7982F282B21BB40E060E9CE
:1013300071E082B3892782BB28EB3BE0FB01319748
:10134000F1F721503040D1F74F5F493091F70895C0
:10135000813049F0813028F0823039F0833041F417
:1013600006C06ABB089567BB089564BB089561BB5E
:101370000895813049F0813028F0823039F083308F
:1013800041F406C06BBB089568BB089565BB089522
:1013900062BB0895813069F0813028F0823079F0A5
:1013A0008330C1F412C08FEF8ABB8BB380958BBBA7
:1013B00008958FEF87BB88B3809588BB08958FEF22
:1013C00084BB85B3809585BB08958FEF81BB82B3C5
:1013D000809582BB0895349A08953798089587B10F
:1013E0008F7387B93E9A86B1887F86B986B1876048
:1013F00086B9379A089597B1907E97B997B1982B8F
:1014000097B9369A349BFECF349A24B135B1C901CD
:10141000089581E067E040E00E9495088AE08A959F
:10142000F1F781E067E041E00E94950885E38A9545
:10143000F1F781E067E040E00E94950881E066E016
:101440000E9409098823D1F380E00E94B20681E05E
:1014500066E00E9409098823D1F762B770E080E056
:1014600090E061507F4F8F4F9F4F0E949D0320E07F
:1014700030E040E85DE30E941F020E94490028EE30
:1014800033E040E050E00E94D20E2AE330E040E03A
:1014900050E00E94180FCA01B901089581E067E089
:1014A00041E00E94210881E066E040E00E942108BE
:1014B00081E067E040E00E949508089580E060E0E8
:1014C00040E00E94210880E060E00E940909089540
:1014D00090E00E94FB09AA2797FDA095BA2FBC01B6
:1014E000CD0128E833E140E050E00E94D20E2FEF1A
:1014F00033E040E050E00E94180FC90108950E94B7
:10150000680A6AE070E00E94F10ECB010895EF9244
:10151000FF921F93182F81E061E041E00E9495083F
:1015200081E062E040E00E949508412F441F44277B
:10153000441F80E067E00E949508412F4295469540
:101540004695417080E066E00E949508412F4295E3
:101550004695417080E065E00E949508412F4295D4
:10156000417080E064E00E94950881E063E041E022
:101570000E94950880EDE82E87E0F82EC7010197BC
:10158000F1F781E063E040E00E949508412F469525
:1015900046954695417080E067E00E949508412F8E
:1015A00046954695417080E066E00E949508412F7F
:1015B0004695417080E065E00E949508117080E0DA
:1015C00064E0412F0E94950881E063E041E00E94C1
:1015D0009508C7010197F1F781E063E040E00E94C0
:1015E00095081F91FF90EF9008951F93CF93DF937D
:1015F000EC0110E003C00E94870A1F5FFE01E10FAB
:10160000F11D80818823B9F7DF91CF911F91089553
:101610006F927F929F92AF92BF92CF92DF92EF92A2
:10162000FF920F931F93DF93CF93CDB7DEB78C015B
:101630006DB67EB6009721F480E30E94870AA9C0A8
:10164000181619060CF055C0ADB69EB6B80188271D
:1016500077FD8095982FBB242AE030E040E050E0F1
:101660000E94180FC901DA01BC01CD01B3946115C4
:1016700071058105910581F7EB2CFF24C7010196C7
:101680002DB73EB7281B390B0FB6F8943EBF0FBEDF
:101690002DBFCDB6DEB60894C11CD11C4B2D4150D8
:1016A000E42FFF27E7FDF095EC0DFD1D0FC0C801ED
:1016B0006AE070E00E94050F805D8083C8016AE0E7
:1016C00070E00E94050F8B014150319747FFEFCF2B
:1016D000EC0CFD1CF7011082C6010E94F50A8A2D50
:1016E000992D9C010FB6F8943EBF0FBE2DBF17FF7A
:1016F00050C0BDB6AEB68DE20E94870ACC24DD2470
:10170000C01AD10AC60140E06AE070E00E94050FED
:10171000CB014F5F61157105B9F7042F112707FD44
:101720001095C80101962DB73EB7281B390B0FB68F
:10173000F8943EBF0FBE2DBFEDB6FEB60894E11C77
:10174000F11C4150E42FFF27E7FDF095EE0DFF1D42
:101750000FC0C6016AE070E00E94050F805D8083C3
:10176000C6016AE070E00E94050F6B01415031979D
:1017700047FFEFCF0E0D1F1DF8011082C7010E9419
:10178000F50A8B2D9A2D9C010FB6F8943EBF0FBE23
:101790002DBF0FB6F8947EBE0FBE6DBECF91DF9108
:1017A0001F910F91FF90EF90DF90CF90BF90AF907F
:1017B0009F907F906F900895EF92FF921F93182F44
:1017C00081E061E040E00E94950881E062E040E055
:1017D0000E949508412F441F4427441F80E067E082
:1017E0000E949508412F429546954695417080E0AC
:1017F00066E00E949508412F42954695417080E031
:1018000065E00E949508412F4295417080E064E0B8
:101810000E94950881E063E041E00E94950890ED08
:10182000E92E97E0F92EC7010197F1F781E063E017
:1018300040E00E949508412F469546954695417097
:1018400080E067E00E949508412F469546954170DB
:1018500080E066E00E949508412F4695417080E047
:1018600065E00E949508117080E064E0412F0E94BD
:10187000950881E063E041E00E949508C701019767
:10188000F1F781E063E040E00E9495081F91FF902E
:10189000EF900895982F8150823088F4693278F45F
:1018A000662369F0913029F4862F80580E94DC0B62
:1018B0000895923021F4862F80540E94DC0B089505
:1018C00081E00E94DC0B80EA9FE00197F1F7089528
:1018D0001F9380E067E041E00E94210880E066E01D
:1018E00041E00E94210880E065E041E00E9421087B
:1018F00080E064E041E00E94210881E061E041E095
:101900000E94210881E062E041E00E94210881E01C
:1019100063E041E00E9421088EE591E020E931E09A
:10192000F9013197F1F70197D9F782E00E94DC0BBA
:1019300088E20E94DC0B10EF812F8A95F1F78FE08F
:101940000E94DC0B1A95F1F781E00E94DC0B80EE1F
:101950009EE20197F1F786E00E94DC0B1F9108954B
:101960009F92AF92BF92CF92DF92EF92FF920F932E
:101970001F93CF93DF9338E7A32E31E0B32E2CE7EC
:10198000C22E21E0D22E10E094E5992EEE24FF2401
:10199000F5018081F601608140E00E949508809108
:1019A0008001609184010E940909882319F460E094
:1019B00070E020C080918101609185010E94090939
:1019C000882319F461E070E015C080918201609174
:1019D00086010E940909882319F462E070E00AC0B8
:1019E00080918301609187010E9409098823D1F4C5
:1019F00063E070E0F701EE0FFF1FEE0FFF1FE60F31
:101A0000F71FE859FE4F90808B0100581E4FEB01E5
:101A1000CC57DE4FF801808168810E940909882334
:101A2000C9F311E0F5018081F601608141E00E9477
:101A30009508113071F00894E11CF11C0894A11C68
:101A4000B11C0894C11CD11CF4E0EF16F10409F09C
:101A50009FCF892DDF91CF911F910F91FF90EF9034
:101A6000DF90CF90BF90AF909F90089582E063E0A9
:101A700040E00E94210882E064E040E00E942108EA
:101A800082E065E040E00E94210882E066E040E0FC
:101A90000E94210881E064E041E00E94210881E089
:101AA00065E041E00E94210881E066E041E00E949B
:101AB000210881E067E041E00E94210882E063E0C4
:101AC00041E00E94950882E064E041E00E949508B0
:101AD00082E065E041E00E94950882E066E041E036
:101AE0000E94950881E064E041E00E94950881E051
:101AF00065E041E00E94950881E066E041E00E94D7
:101B0000950881E067E041E00E9495080895EF9212
:101B1000FF920F931F93182F092F7B010E944507F7
:101B20000065802F0E945D07812F0E947E070E9422
:101B30005107802F0E946D0781E00E948807F701FE
:101B400080830E949F0780E29EE40197F1F71F9136
:101B50000F91FF90EF900895FF920F931F93182F0E
:101B6000092FF62E0E944507802F80650E945D0791
:101B7000812F0E947E078F2D0E947E070E949F0763
:101B800080E29EE40197F1F71F910F91FF90089575
:101B90000E943A07089580E062E041E00E94210837
:101BA00080E062E040E00E949508089580E062E0F5
:101BB00041E00E94210880E062E041E00E94950837
:101BC0000895AF92BF92DF92EF92FF920F931F930F
:101BD000DF93CF93CDB7DEB76E970FB6F894DEBF25
:101BE0000FBECDBF00E010E0EE24DD245E010894BE
:101BF000A11CB11C0E94B00CF82E84E5F816D1F39C
:101C00008F2D0E94870A8F2D80538A3070F4C8016F
:101C1000E3E0880F991FEA95E1F7000F111F080F05
:101C2000191F005310400F0D111DEBE2FE1651F06D
:101C3000FDE2FF1639F088E7F81621F0EFE2FE1614
:101C400009F04BC0EE2DF0E0EE0FFF1FEA0DFB1D7B
:101C500013870287E39430C0EA94EE2DF0E0EE0F94
:101C6000FF1FEA0DFB1D628573858E2D8150282F85
:101C700030E0220F331F2A0D3B1DF90142855385A9
:101C8000DA94F501ED0DF11DE081E83759F4469F36
:101C9000C001479F900D569F900D1124F901938725
:101CA00082870AC0EF3211F0E82E06C0CA010E94F6
:101CB000F10EF90173876287DD2041F0FE01ED0D21
:101CC000F11DE081E83741F2EF3231F2F501ED0D1F
:101CD000F11DF082D39400E010E0FDE3FF1609F05F
:101CE00055C0EE2DF0E0EE0FFF1FEA0DFB1D138730
:101CF00002878E2D8F5F3CC0482F4150E42FF0E0CB
:101D0000EE0FFF1FEA0DFB1D628573858250082FC1
:101D100010E0000F111F0A0D1B1DF80122853385ED
:101D2000DA94F501ED0DF11DE081EB3219F4260F87
:101D3000371F04C0ED3231F4261B370BF80133870F
:101D4000228715C0E83759F4269FC001279F900DC0
:101D5000369F900D1124F8019387828708C0EF32D7
:101D600039F4C9010E94F10EF80173876287842F4C
:101D7000DD2011F682E061E00E944A0C8B859C8593
:101D80000E94080B00E010E0EE2434CFF3E6FF16CB
:101D900009F030CF0E94600C00E010E0EE24DD245A
:101DA00029CFFFCF629FD001739FF001829FE00D8A
:101DB000F11D649FE00DF11D929FF00D839FF00DCA
:101DC000749FF00D659FF00D9927729FB00DE11D76
:101DD000F91F639FB00DE11DF91FBD01CF01112453
:101DE0000895AA1BBB1B51E107C0AA1FBB1FA61762
:101DF000B70710F0A61BB70B881F991F5A95A9F7B4
:101E000080959095BC01CD01089597FB092E07267A
:101E10000AD077FD04D0E5DF06D000201AF47095D3
:101E200061957F4F0895F6F7909581959F4F08959E
:101E3000A1E21A2EAA1BBB1BFD010DC0AA1FBB1FCE
:101E4000EE1FFF1FA217B307E407F50720F0A21B40
:101E5000B30BE40BF50B661F771F881F991F1A94AD
:101E600069F760957095809590959B01AC01BD01D7
:101E7000CF0108952F923F924F925F926F927F927F
:101E80008F929F92AF92BF92CF92DF92EF92FF928A
:101E90000F931F93CF93DF93CDB7DEB7CA1BDB0B36
:101EA0000FB6F894DEBF0FBECDBF09942A883988DB
:101EB00048885F846E847D848C849B84AA84B984E2
:101EC000C884DF80EE80FD800C811B81AA81B981EE
:101ED000CE0FD11D0FB6F894DEBF0FBECDBFED0102
:061EE0000895F894FFCF05
:101EE60000000000000000000001020203030303DB
:101EF6000404040404040404050505050505050594
:101F06000505050505050505060606060606060673
:101F1600060606060606060606060606060606065B
:101F26000606060606060606070707070707070743
:101F3600070707070707070707070707070707072B
:101F4600070707070707070707070707070707071B
:101F5600070707070707070707070707070707070B
:101F660007070707070707070808080808080808F3
:101F760008080808080808080808080808080808DB
:101F860008080808080808080808080808080808CB
:101F960008080808080808080808080808080808BB
:101FA60008080808080808080808080808080808AB
:101FB600080808080808080808080808080808089B
:101FC600080808080808080808080808080808088B
:101FD600080808080808080808080808080808087B
:101FE60008080808080808082F782B2D30383235DD
:101FF6003D393336633731340101010104050607E3
:082006000202020203040506B8
:00000001FF
